{
	"Zkpass.sol": {
		"ZKPass": {
			"abi": [
				{
					"anonymous": false,
					"inputs": [
						{
							"indexed": true,
							"internalType": "string",
							"name": "uid",
							"type": "string"
						}
					],
					"name": "UIDRegistered",
					"type": "event"
				},
				{
					"inputs": [
						{
							"internalType": "string",
							"name": "uid",
							"type": "string"
						}
					],
					"name": "checkUID",
					"outputs": [
						{
							"internalType": "bool",
							"name": "",
							"type": "bool"
						}
					],
					"stateMutability": "view",
					"type": "function"
				},
				{
					"inputs": [
						{
							"internalType": "string",
							"name": "uid",
							"type": "string"
						}
					],
					"name": "registerUID",
					"outputs": [],
					"stateMutability": "nonpayable",
					"type": "function"
				},
				{
					"inputs": [
						{
							"internalType": "string",
							"name": "proof",
							"type": "string"
						},
						{
							"internalType": "string",
							"name": "uid",
							"type": "string"
						}
					],
					"name": "verifyProof",
					"outputs": [
						{
							"internalType": "bool",
							"name": "",
							"type": "bool"
						}
					],
					"stateMutability": "view",
					"type": "function"
				}
			],
			"devdoc": {
				"details": "Combined contract for ZKPass authentication system, handling both UID registration and ZKP verification",
				"kind": "dev",
				"methods": {
					"checkUID(string)": {
						"details": "Check if a UID exists",
						"params": {
							"uid": "The unique identifier to check"
						},
						"returns": {
							"_0": "bool True if the UID exists, false otherwise"
						}
					},
					"registerUID(string)": {
						"details": "Register a new UID",
						"params": {
							"uid": "The unique identifier to register"
						}
					},
					"verifyProof(string,string)": {
						"details": "Verify a ZKP proof",
						"params": {
							"proof": "The proof to verify",
							"uid": "The unique identifier to check against"
						},
						"returns": {
							"_0": "bool True if the proof is valid, false otherwise"
						}
					}
				},
				"title": "ZKPass",
				"version": 1
			},
			"evm": {
				"assembly": "    /* \"Zkpass.sol\":202:3392  contract ZKPass {... */\n  mstore(0x40, 0x80)\n  callvalue\n  dup1\n  iszero\n  tag_1\n  jumpi\n  revert(0x00, 0x00)\ntag_1:\n  pop\n  dataSize(sub_0)\n  dup1\n  dataOffset(sub_0)\n  0x00\n  codecopy\n  0x00\n  return\nstop\n\nsub_0: assembly {\n        /* \"Zkpass.sol\":202:3392  contract ZKPass {... */\n      mstore(0x40, 0x80)\n      callvalue\n      dup1\n      iszero\n      tag_1\n      jumpi\n      revert(0x00, 0x00)\n    tag_1:\n      pop\n      jumpi(tag_2, lt(calldatasize, 0x04))\n      shr(0xe0, calldataload(0x00))\n      dup1\n      0x46f90c1d\n      eq\n      tag_3\n      jumpi\n      dup1\n      0x78939fad\n      eq\n      tag_4\n      jumpi\n      dup1\n      0xaa5bfd21\n      eq\n      tag_5\n      jumpi\n    tag_2:\n      revert(0x00, 0x00)\n        /* \"Zkpass.sol\":1173:1282  function checkUID(string memory uid) public view returns (bool) {... */\n    tag_3:\n      tag_6\n      0x04\n      dup1\n      calldatasize\n      sub\n      dup2\n      add\n      swap1\n      tag_7\n      swap2\n      swap1\n      tag_8\n      jump\t// in\n    tag_7:\n      tag_9\n      jump\t// in\n    tag_6:\n      mload(0x40)\n      tag_10\n      swap2\n      swap1\n      tag_11\n      jump\t// in\n    tag_10:\n      mload(0x40)\n      dup1\n      swap2\n      sub\n      swap1\n      return\n        /* \"Zkpass.sol\":1508:3389  function verifyProof(string memory proof, string memory uid) public view returns (bool) {... */\n    tag_4:\n      tag_12\n      0x04\n      dup1\n      calldatasize\n      sub\n      dup2\n      add\n      swap1\n      tag_13\n      swap2\n      swap1\n      tag_14\n      jump\t// in\n    tag_13:\n      tag_15\n      jump\t// in\n    tag_12:\n      mload(0x40)\n      tag_16\n      swap2\n      swap1\n      tag_11\n      jump\t// in\n    tag_16:\n      mload(0x40)\n      dup1\n      swap2\n      sub\n      swap1\n      return\n        /* \"Zkpass.sol\":531:997  function registerUID(string memory uid) public {... */\n    tag_5:\n      tag_17\n      0x04\n      dup1\n      calldatasize\n      sub\n      dup2\n      add\n      swap1\n      tag_18\n      swap2\n      swap1\n      tag_8\n      jump\t// in\n    tag_18:\n      tag_19\n      jump\t// in\n    tag_17:\n      stop\n        /* \"Zkpass.sol\":1173:1282  function checkUID(string memory uid) public view returns (bool) {... */\n    tag_9:\n        /* \"Zkpass.sol\":1231:1235  bool */\n      0x00\n        /* \"Zkpass.sol\":1255:1269  registeredUIDs */\n      0x00\n        /* \"Zkpass.sol\":1270:1273  uid */\n      dup3\n        /* \"Zkpass.sol\":1255:1274  registeredUIDs[uid] */\n      mload(0x40)\n      tag_21\n      swap2\n      swap1\n      tag_22\n      jump\t// in\n    tag_21:\n      swap1\n      dup2\n      mstore\n      0x20\n      add\n      mload(0x40)\n      dup1\n      swap2\n      sub\n      swap1\n      keccak256\n      0x00\n      swap1\n      sload\n      swap1\n      0x0100\n      exp\n      swap1\n      div\n      0xff\n      and\n        /* \"Zkpass.sol\":1248:1274  return registeredUIDs[uid] */\n      swap1\n      pop\n        /* \"Zkpass.sol\":1173:1282  function checkUID(string memory uid) public view returns (bool) {... */\n      swap2\n      swap1\n      pop\n      jump\t// out\n        /* \"Zkpass.sol\":1508:3389  function verifyProof(string memory proof, string memory uid) public view returns (bool) {... */\n    tag_15:\n        /* \"Zkpass.sol\":1590:1594  bool */\n      0x00\n        /* \"Zkpass.sol\":1670:1683  checkUID(uid) */\n      tag_24\n        /* \"Zkpass.sol\":1679:1682  uid */\n      dup3\n        /* \"Zkpass.sol\":1670:1678  checkUID */\n      tag_9\n        /* \"Zkpass.sol\":1670:1683  checkUID(uid) */\n      jump\t// in\n    tag_24:\n        /* \"Zkpass.sol\":1665:1724  if (!checkUID(uid)) {... */\n      tag_25\n      jumpi\n        /* \"Zkpass.sol\":1707:1712  false */\n      0x00\n        /* \"Zkpass.sol\":1700:1712  return false */\n      swap1\n      pop\n      jump(tag_23)\n        /* \"Zkpass.sol\":1665:1724  if (!checkUID(uid)) {... */\n    tag_25:\n        /* \"Zkpass.sol\":2613:2636  bytes memory proofBytes */\n      0x00\n        /* \"Zkpass.sol\":2645:2650  proof */\n      dup4\n        /* \"Zkpass.sol\":2613:2651  bytes memory proofBytes = bytes(proof) */\n      swap1\n      pop\n        /* \"Zkpass.sol\":2687:2689  64 */\n      0x40\n        /* \"Zkpass.sol\":2666:2676  proofBytes */\n      dup2\n        /* \"Zkpass.sol\":2666:2683  proofBytes.length */\n      mload\n        /* \"Zkpass.sol\":2666:2689  proofBytes.length != 64 */\n      eq\n        /* \"Zkpass.sol\":2662:2780  if (proofBytes.length != 64) { // SHA-256 produces a 32-byte (64 hex chars) hash... */\n      tag_26\n      jumpi\n        /* \"Zkpass.sol\":2763:2768  false */\n      0x00\n        /* \"Zkpass.sol\":2756:2768  return false */\n      swap2\n      pop\n      pop\n      jump(tag_23)\n        /* \"Zkpass.sol\":2662:2780  if (proofBytes.length != 64) { // SHA-256 produces a 32-byte (64 hex chars) hash... */\n    tag_26:\n        /* \"Zkpass.sol\":2873:2879  uint i */\n      0x00\n        /* \"Zkpass.sol\":2882:2883  0 */\n      0x00\n        /* \"Zkpass.sol\":2873:2883  uint i = 0 */\n      swap1\n      pop\n        /* \"Zkpass.sol\":2868:3280  for (uint i = 0; i < proofBytes.length; i++) {... */\n    tag_27:\n        /* \"Zkpass.sol\":2889:2899  proofBytes */\n      dup2\n        /* \"Zkpass.sol\":2889:2906  proofBytes.length */\n      mload\n        /* \"Zkpass.sol\":2885:2886  i */\n      dup2\n        /* \"Zkpass.sol\":2885:2906  i < proofBytes.length */\n      lt\n        /* \"Zkpass.sol\":2868:3280  for (uint i = 0; i < proofBytes.length; i++) {... */\n      iszero\n      tag_28\n      jumpi\n        /* \"Zkpass.sol\":2928:2939  bytes1 char */\n      0x00\n        /* \"Zkpass.sol\":2942:2952  proofBytes */\n      dup3\n        /* \"Zkpass.sol\":2953:2954  i */\n      dup3\n        /* \"Zkpass.sol\":2942:2955  proofBytes[i] */\n      dup2\n      mload\n      dup2\n      lt\n      tag_30\n      jumpi\n      tag_31\n      tag_32\n      jump\t// in\n    tag_31:\n    tag_30:\n      0x20\n      add\n      add\n      mload\n      0xf8\n      shr\n      0xf8\n      shl\n        /* \"Zkpass.sol\":2928:2955  bytes1 char = proofBytes[i] */\n      swap1\n      pop\n        /* \"Zkpass.sol\":2970:2984  bool isHexChar */\n      0x00\n        /* \"Zkpass.sol\":3015:3019  0x30 */\n      0x30\n        /* \"Zkpass.sol\":3007:3019  char >= 0x30 */\n      0xf8\n      shl\n        /* \"Zkpass.sol\":3007:3011  char */\n      dup3\n        /* \"Zkpass.sol\":3007:3019  char >= 0x30 */\n      not(0xffffffffffffffffffffffffffffffffffffffffffffffffffffffffffffff)\n      and\n      lt\n      iszero\n        /* \"Zkpass.sol\":3007:3035  char >= 0x30 && char <= 0x39 */\n      dup1\n      iszero\n      tag_33\n      jumpi\n      pop\n        /* \"Zkpass.sol\":3031:3035  0x39 */\n      0x39\n        /* \"Zkpass.sol\":3023:3035  char <= 0x39 */\n      0xf8\n      shl\n        /* \"Zkpass.sol\":3023:3027  char */\n      dup3\n        /* \"Zkpass.sol\":3023:3035  char <= 0x39 */\n      not(0xffffffffffffffffffffffffffffffffffffffffffffffffffffffffffffff)\n      and\n      gt\n      iszero\n        /* \"Zkpass.sol\":3007:3035  char >= 0x30 && char <= 0x39 */\n    tag_33:\n        /* \"Zkpass.sol\":3006:3094  (char >= 0x30 && char <= 0x39) || // 0-9... */\n      dup1\n      tag_34\n      jumpi\n      pop\n        /* \"Zkpass.sol\":3073:3077  0x61 */\n      0x61\n        /* \"Zkpass.sol\":3065:3077  char >= 0x61 */\n      0xf8\n      shl\n        /* \"Zkpass.sol\":3065:3069  char */\n      dup3\n        /* \"Zkpass.sol\":3065:3077  char >= 0x61 */\n      not(0xffffffffffffffffffffffffffffffffffffffffffffffffffffffffffffff)\n      and\n      lt\n      iszero\n        /* \"Zkpass.sol\":3065:3093  char >= 0x61 && char <= 0x66 */\n      dup1\n      iszero\n      tag_35\n      jumpi\n      pop\n        /* \"Zkpass.sol\":3089:3093  0x66 */\n      0x66\n        /* \"Zkpass.sol\":3081:3093  char <= 0x66 */\n      0xf8\n      shl\n        /* \"Zkpass.sol\":3081:3085  char */\n      dup3\n        /* \"Zkpass.sol\":3081:3093  char <= 0x66 */\n      not(0xffffffffffffffffffffffffffffffffffffffffffffffffffffffffffffff)\n      and\n      gt\n      iszero\n        /* \"Zkpass.sol\":3065:3093  char >= 0x61 && char <= 0x66 */\n    tag_35:\n        /* \"Zkpass.sol\":3006:3094  (char >= 0x30 && char <= 0x39) || // 0-9... */\n    tag_34:\n        /* \"Zkpass.sol\":3006:3152  (char >= 0x30 && char <= 0x39) || // 0-9... */\n      dup1\n      tag_36\n      jumpi\n      pop\n        /* \"Zkpass.sol\":3131:3135  0x41 */\n      0x41\n        /* \"Zkpass.sol\":3123:3135  char >= 0x41 */\n      0xf8\n      shl\n        /* \"Zkpass.sol\":3123:3127  char */\n      dup3\n        /* \"Zkpass.sol\":3123:3135  char >= 0x41 */\n      not(0xffffffffffffffffffffffffffffffffffffffffffffffffffffffffffffff)\n      and\n      lt\n      iszero\n        /* \"Zkpass.sol\":3123:3151  char >= 0x41 && char <= 0x46 */\n      dup1\n      iszero\n      tag_37\n      jumpi\n      pop\n        /* \"Zkpass.sol\":3147:3151  0x46 */\n      0x46\n        /* \"Zkpass.sol\":3139:3151  char <= 0x46 */\n      0xf8\n      shl\n        /* \"Zkpass.sol\":3139:3143  char */\n      dup3\n        /* \"Zkpass.sol\":3139:3151  char <= 0x46 */\n      not(0xffffffffffffffffffffffffffffffffffffffffffffffffffffffffffffff)\n      and\n      gt\n      iszero\n        /* \"Zkpass.sol\":3123:3151  char >= 0x41 && char <= 0x46 */\n    tag_37:\n        /* \"Zkpass.sol\":3006:3152  (char >= 0x30 && char <= 0x39) || // 0-9... */\n    tag_36:\n        /* \"Zkpass.sol\":2970:3177  bool isHexChar = (... */\n      swap1\n      pop\n        /* \"Zkpass.sol\":3211:3220  isHexChar */\n      dup1\n        /* \"Zkpass.sol\":3206:3269  if (!isHexChar) {... */\n      tag_38\n      jumpi\n        /* \"Zkpass.sol\":3248:3253  false */\n      0x00\n        /* \"Zkpass.sol\":3241:3253  return false */\n      swap5\n      pop\n      pop\n      pop\n      pop\n      pop\n      jump(tag_23)\n        /* \"Zkpass.sol\":3206:3269  if (!isHexChar) {... */\n    tag_38:\n        /* \"Zkpass.sol\":2913:3280  {... */\n      pop\n      pop\n        /* \"Zkpass.sol\":2908:2911  i++ */\n      dup1\n      dup1\n      0x01\n      add\n      swap2\n      pop\n      pop\n        /* \"Zkpass.sol\":2868:3280  for (uint i = 0; i < proofBytes.length; i++) {... */\n      jump(tag_27)\n    tag_28:\n      pop\n        /* \"Zkpass.sol\":3377:3381  true */\n      0x01\n        /* \"Zkpass.sol\":3370:3381  return true */\n      swap2\n      pop\n      pop\n        /* \"Zkpass.sol\":1508:3389  function verifyProof(string memory proof, string memory uid) public view returns (bool) {... */\n    tag_23:\n      swap3\n      swap2\n      pop\n      pop\n      jump\t// out\n        /* \"Zkpass.sol\":531:997  function registerUID(string memory uid) public {... */\n    tag_19:\n        /* \"Zkpass.sol\":625:646  bytes memory uidBytes */\n      0x00\n        /* \"Zkpass.sol\":655:658  uid */\n      dup2\n        /* \"Zkpass.sol\":625:659  bytes memory uidBytes = bytes(uid) */\n      swap1\n      pop\n        /* \"Zkpass.sol\":696:697  0 */\n      0x00\n        /* \"Zkpass.sol\":678:686  uidBytes */\n      dup2\n        /* \"Zkpass.sol\":678:693  uidBytes.length */\n      mload\n        /* \"Zkpass.sol\":678:697  uidBytes.length > 0 */\n      gt\n        /* \"Zkpass.sol\":670:721  require(uidBytes.length > 0, \"UID cannot be empty\") */\n      tag_40\n      jumpi\n      mload(0x40)\n      0x08c379a000000000000000000000000000000000000000000000000000000000\n      dup2\n      mstore\n      0x04\n      add\n      tag_41\n      swap1\n      tag_42\n      jump\t// in\n    tag_41:\n      mload(0x40)\n      dup1\n      swap2\n      sub\n      swap1\n      revert\n    tag_40:\n        /* \"Zkpass.sol\":800:814  registeredUIDs */\n      0x00\n        /* \"Zkpass.sol\":815:818  uid */\n      dup3\n        /* \"Zkpass.sol\":800:819  registeredUIDs[uid] */\n      mload(0x40)\n      tag_43\n      swap2\n      swap1\n      tag_22\n      jump\t// in\n    tag_43:\n      swap1\n      dup2\n      mstore\n      0x20\n      add\n      mload(0x40)\n      dup1\n      swap2\n      sub\n      swap1\n      keccak256\n      0x00\n      swap1\n      sload\n      swap1\n      0x0100\n      exp\n      swap1\n      div\n      0xff\n      and\n        /* \"Zkpass.sol\":799:819  !registeredUIDs[uid] */\n      iszero\n        /* \"Zkpass.sol\":791:846  require(!registeredUIDs[uid], \"UID already registered\") */\n      tag_44\n      jumpi\n      mload(0x40)\n      0x08c379a000000000000000000000000000000000000000000000000000000000\n      dup2\n      mstore\n      0x04\n      add\n      tag_45\n      swap1\n      tag_46\n      jump\t// in\n    tag_45:\n      mload(0x40)\n      dup1\n      swap2\n      sub\n      swap1\n      revert\n    tag_44:\n        /* \"Zkpass.sol\":918:922  true */\n      0x01\n        /* \"Zkpass.sol\":896:910  registeredUIDs */\n      0x00\n        /* \"Zkpass.sol\":911:914  uid */\n      dup4\n        /* \"Zkpass.sol\":896:915  registeredUIDs[uid] */\n      mload(0x40)\n      tag_47\n      swap2\n      swap1\n      tag_22\n      jump\t// in\n    tag_47:\n      swap1\n      dup2\n      mstore\n      0x20\n      add\n      mload(0x40)\n      dup1\n      swap2\n      sub\n      swap1\n      keccak256\n      0x00\n        /* \"Zkpass.sol\":896:922  registeredUIDs[uid] = true */\n      0x0100\n      exp\n      dup2\n      sload\n      dup2\n      0xff\n      mul\n      not\n      and\n      swap1\n      dup4\n      iszero\n      iszero\n      mul\n      or\n      swap1\n      sstore\n      pop\n        /* \"Zkpass.sol\":985:988  uid */\n      dup2\n        /* \"Zkpass.sol\":971:989  UIDRegistered(uid) */\n      mload(0x40)\n      tag_48\n      swap2\n      swap1\n      tag_22\n      jump\t// in\n    tag_48:\n      mload(0x40)\n      dup1\n      swap2\n      sub\n      swap1\n      keccak256\n      0x20121cdf51b92a6a59fef95e2d1e418e22c664e84afc7c59b4be66cf35b88daf\n      mload(0x40)\n      mload(0x40)\n      dup1\n      swap2\n      sub\n      swap1\n      log2\n        /* \"Zkpass.sol\":578:997  {... */\n      pop\n        /* \"Zkpass.sol\":531:997  function registerUID(string memory uid) public {... */\n      pop\n      jump\t// out\n        /* \"#utility.yul\":7:82   */\n    tag_49:\n        /* \"#utility.yul\":40:46   */\n      0x00\n        /* \"#utility.yul\":73:75   */\n      0x40\n        /* \"#utility.yul\":67:76   */\n      mload\n        /* \"#utility.yul\":57:76   */\n      swap1\n      pop\n        /* \"#utility.yul\":7:82   */\n      swap1\n      jump\t// out\n        /* \"#utility.yul\":88:205   */\n    tag_50:\n        /* \"#utility.yul\":197:198   */\n      0x00\n        /* \"#utility.yul\":194:195   */\n      0x00\n        /* \"#utility.yul\":187:199   */\n      revert\n        /* \"#utility.yul\":211:328   */\n    tag_51:\n        /* \"#utility.yul\":320:321   */\n      0x00\n        /* \"#utility.yul\":317:318   */\n      0x00\n        /* \"#utility.yul\":310:322   */\n      revert\n        /* \"#utility.yul\":334:451   */\n    tag_52:\n        /* \"#utility.yul\":443:444   */\n      0x00\n        /* \"#utility.yul\":440:441   */\n      0x00\n        /* \"#utility.yul\":433:445   */\n      revert\n        /* \"#utility.yul\":457:574   */\n    tag_53:\n        /* \"#utility.yul\":566:567   */\n      0x00\n        /* \"#utility.yul\":563:564   */\n      0x00\n        /* \"#utility.yul\":556:568   */\n      revert\n        /* \"#utility.yul\":580:682   */\n    tag_54:\n        /* \"#utility.yul\":621:627   */\n      0x00\n        /* \"#utility.yul\":672:674   */\n      0x1f\n        /* \"#utility.yul\":668:675   */\n      not\n        /* \"#utility.yul\":663:665   */\n      0x1f\n        /* \"#utility.yul\":656:661   */\n      dup4\n        /* \"#utility.yul\":652:666   */\n      add\n        /* \"#utility.yul\":648:676   */\n      and\n        /* \"#utility.yul\":638:676   */\n      swap1\n      pop\n        /* \"#utility.yul\":580:682   */\n      swap2\n      swap1\n      pop\n      jump\t// out\n        /* \"#utility.yul\":688:868   */\n    tag_55:\n        /* \"#utility.yul\":736:813   */\n      0x4e487b7100000000000000000000000000000000000000000000000000000000\n        /* \"#utility.yul\":733:734   */\n      0x00\n        /* \"#utility.yul\":726:814   */\n      mstore\n        /* \"#utility.yul\":833:837   */\n      0x41\n        /* \"#utility.yul\":830:831   */\n      0x04\n        /* \"#utility.yul\":823:838   */\n      mstore\n        /* \"#utility.yul\":857:861   */\n      0x24\n        /* \"#utility.yul\":854:855   */\n      0x00\n        /* \"#utility.yul\":847:862   */\n      revert\n        /* \"#utility.yul\":874:1155   */\n    tag_56:\n        /* \"#utility.yul\":957:984   */\n      tag_82\n        /* \"#utility.yul\":979:983   */\n      dup3\n        /* \"#utility.yul\":957:984   */\n      tag_54\n      jump\t// in\n    tag_82:\n        /* \"#utility.yul\":949:955   */\n      dup2\n        /* \"#utility.yul\":945:985   */\n      add\n        /* \"#utility.yul\":1087:1093   */\n      dup2\n        /* \"#utility.yul\":1075:1085   */\n      dup2\n        /* \"#utility.yul\":1072:1094   */\n      lt\n        /* \"#utility.yul\":1051:1069   */\n      0xffffffffffffffff\n        /* \"#utility.yul\":1039:1049   */\n      dup3\n        /* \"#utility.yul\":1036:1070   */\n      gt\n        /* \"#utility.yul\":1033:1095   */\n      or\n        /* \"#utility.yul\":1030:1118   */\n      iszero\n      tag_83\n      jumpi\n        /* \"#utility.yul\":1098:1116   */\n      tag_84\n      tag_55\n      jump\t// in\n    tag_84:\n        /* \"#utility.yul\":1030:1118   */\n    tag_83:\n        /* \"#utility.yul\":1138:1148   */\n      dup1\n        /* \"#utility.yul\":1134:1136   */\n      0x40\n        /* \"#utility.yul\":1127:1149   */\n      mstore\n        /* \"#utility.yul\":917:1155   */\n      pop\n        /* \"#utility.yul\":874:1155   */\n      pop\n      pop\n      jump\t// out\n        /* \"#utility.yul\":1161:1290   */\n    tag_57:\n        /* \"#utility.yul\":1195:1201   */\n      0x00\n        /* \"#utility.yul\":1222:1242   */\n      tag_86\n      tag_49\n      jump\t// in\n    tag_86:\n        /* \"#utility.yul\":1212:1242   */\n      swap1\n      pop\n        /* \"#utility.yul\":1251:1284   */\n      tag_87\n        /* \"#utility.yul\":1279:1283   */\n      dup3\n        /* \"#utility.yul\":1271:1277   */\n      dup3\n        /* \"#utility.yul\":1251:1284   */\n      tag_56\n      jump\t// in\n    tag_87:\n        /* \"#utility.yul\":1161:1290   */\n      swap2\n      swap1\n      pop\n      jump\t// out\n        /* \"#utility.yul\":1296:1604   */\n    tag_58:\n        /* \"#utility.yul\":1358:1362   */\n      0x00\n        /* \"#utility.yul\":1448:1466   */\n      0xffffffffffffffff\n        /* \"#utility.yul\":1440:1446   */\n      dup3\n        /* \"#utility.yul\":1437:1467   */\n      gt\n        /* \"#utility.yul\":1434:1490   */\n      iszero\n      tag_89\n      jumpi\n        /* \"#utility.yul\":1470:1488   */\n      tag_90\n      tag_55\n      jump\t// in\n    tag_90:\n        /* \"#utility.yul\":1434:1490   */\n    tag_89:\n        /* \"#utility.yul\":1508:1537   */\n      tag_91\n        /* \"#utility.yul\":1530:1536   */\n      dup3\n        /* \"#utility.yul\":1508:1537   */\n      tag_54\n      jump\t// in\n    tag_91:\n        /* \"#utility.yul\":1500:1537   */\n      swap1\n      pop\n        /* \"#utility.yul\":1592:1596   */\n      0x20\n        /* \"#utility.yul\":1586:1590   */\n      dup2\n        /* \"#utility.yul\":1582:1597   */\n      add\n        /* \"#utility.yul\":1574:1597   */\n      swap1\n      pop\n        /* \"#utility.yul\":1296:1604   */\n      swap2\n      swap1\n      pop\n      jump\t// out\n        /* \"#utility.yul\":1610:1758   */\n    tag_59:\n        /* \"#utility.yul\":1708:1714   */\n      dup3\n        /* \"#utility.yul\":1703:1706   */\n      dup2\n        /* \"#utility.yul\":1698:1701   */\n      dup4\n        /* \"#utility.yul\":1685:1715   */\n      calldatacopy\n        /* \"#utility.yul\":1749:1750   */\n      0x00\n        /* \"#utility.yul\":1740:1746   */\n      dup4\n        /* \"#utility.yul\":1735:1738   */\n      dup4\n        /* \"#utility.yul\":1731:1747   */\n      add\n        /* \"#utility.yul\":1724:1751   */\n      mstore\n        /* \"#utility.yul\":1610:1758   */\n      pop\n      pop\n      pop\n      jump\t// out\n        /* \"#utility.yul\":1764:2189   */\n    tag_60:\n        /* \"#utility.yul\":1842:1847   */\n      0x00\n        /* \"#utility.yul\":1867:1933   */\n      tag_94\n        /* \"#utility.yul\":1883:1932   */\n      tag_95\n        /* \"#utility.yul\":1925:1931   */\n      dup5\n        /* \"#utility.yul\":1883:1932   */\n      tag_58\n      jump\t// in\n    tag_95:\n        /* \"#utility.yul\":1867:1933   */\n      tag_57\n      jump\t// in\n    tag_94:\n        /* \"#utility.yul\":1858:1933   */\n      swap1\n      pop\n        /* \"#utility.yul\":1956:1962   */\n      dup3\n        /* \"#utility.yul\":1949:1954   */\n      dup2\n        /* \"#utility.yul\":1942:1963   */\n      mstore\n        /* \"#utility.yul\":1994:1998   */\n      0x20\n        /* \"#utility.yul\":1987:1992   */\n      dup2\n        /* \"#utility.yul\":1983:1999   */\n      add\n        /* \"#utility.yul\":2032:2035   */\n      dup5\n        /* \"#utility.yul\":2023:2029   */\n      dup5\n        /* \"#utility.yul\":2018:2021   */\n      dup5\n        /* \"#utility.yul\":2014:2030   */\n      add\n        /* \"#utility.yul\":2011:2036   */\n      gt\n        /* \"#utility.yul\":2008:2120   */\n      iszero\n      tag_96\n      jumpi\n        /* \"#utility.yul\":2039:2118   */\n      tag_97\n      tag_53\n      jump\t// in\n    tag_97:\n        /* \"#utility.yul\":2008:2120   */\n    tag_96:\n        /* \"#utility.yul\":2129:2183   */\n      tag_98\n        /* \"#utility.yul\":2176:2182   */\n      dup5\n        /* \"#utility.yul\":2171:2174   */\n      dup3\n        /* \"#utility.yul\":2166:2169   */\n      dup6\n        /* \"#utility.yul\":2129:2183   */\n      tag_59\n      jump\t// in\n    tag_98:\n        /* \"#utility.yul\":1848:2189   */\n      pop\n        /* \"#utility.yul\":1764:2189   */\n      swap4\n      swap3\n      pop\n      pop\n      pop\n      jump\t// out\n        /* \"#utility.yul\":2209:2549   */\n    tag_61:\n        /* \"#utility.yul\":2265:2270   */\n      0x00\n        /* \"#utility.yul\":2314:2317   */\n      dup3\n        /* \"#utility.yul\":2307:2311   */\n      0x1f\n        /* \"#utility.yul\":2299:2305   */\n      dup4\n        /* \"#utility.yul\":2295:2312   */\n      add\n        /* \"#utility.yul\":2291:2318   */\n      slt\n        /* \"#utility.yul\":2281:2403   */\n      tag_100\n      jumpi\n        /* \"#utility.yul\":2322:2401   */\n      tag_101\n      tag_52\n      jump\t// in\n    tag_101:\n        /* \"#utility.yul\":2281:2403   */\n    tag_100:\n        /* \"#utility.yul\":2439:2445   */\n      dup2\n        /* \"#utility.yul\":2426:2446   */\n      calldataload\n        /* \"#utility.yul\":2464:2543   */\n      tag_102\n        /* \"#utility.yul\":2539:2542   */\n      dup5\n        /* \"#utility.yul\":2531:2537   */\n      dup3\n        /* \"#utility.yul\":2524:2528   */\n      0x20\n        /* \"#utility.yul\":2516:2522   */\n      dup7\n        /* \"#utility.yul\":2512:2529   */\n      add\n        /* \"#utility.yul\":2464:2543   */\n      tag_60\n      jump\t// in\n    tag_102:\n        /* \"#utility.yul\":2455:2543   */\n      swap2\n      pop\n        /* \"#utility.yul\":2271:2549   */\n      pop\n        /* \"#utility.yul\":2209:2549   */\n      swap3\n      swap2\n      pop\n      pop\n      jump\t// out\n        /* \"#utility.yul\":2555:3064   */\n    tag_8:\n        /* \"#utility.yul\":2624:2630   */\n      0x00\n        /* \"#utility.yul\":2673:2675   */\n      0x20\n        /* \"#utility.yul\":2661:2670   */\n      dup3\n        /* \"#utility.yul\":2652:2659   */\n      dup5\n        /* \"#utility.yul\":2648:2671   */\n      sub\n        /* \"#utility.yul\":2644:2676   */\n      slt\n        /* \"#utility.yul\":2641:2760   */\n      iszero\n      tag_104\n      jumpi\n        /* \"#utility.yul\":2679:2758   */\n      tag_105\n      tag_50\n      jump\t// in\n    tag_105:\n        /* \"#utility.yul\":2641:2760   */\n    tag_104:\n        /* \"#utility.yul\":2827:2828   */\n      0x00\n        /* \"#utility.yul\":2816:2825   */\n      dup3\n        /* \"#utility.yul\":2812:2829   */\n      add\n        /* \"#utility.yul\":2799:2830   */\n      calldataload\n        /* \"#utility.yul\":2857:2875   */\n      0xffffffffffffffff\n        /* \"#utility.yul\":2849:2855   */\n      dup2\n        /* \"#utility.yul\":2846:2876   */\n      gt\n        /* \"#utility.yul\":2843:2960   */\n      iszero\n      tag_106\n      jumpi\n        /* \"#utility.yul\":2879:2958   */\n      tag_107\n      tag_51\n      jump\t// in\n    tag_107:\n        /* \"#utility.yul\":2843:2960   */\n    tag_106:\n        /* \"#utility.yul\":2984:3047   */\n      tag_108\n        /* \"#utility.yul\":3039:3046   */\n      dup5\n        /* \"#utility.yul\":3030:3036   */\n      dup3\n        /* \"#utility.yul\":3019:3028   */\n      dup6\n        /* \"#utility.yul\":3015:3037   */\n      add\n        /* \"#utility.yul\":2984:3047   */\n      tag_61\n      jump\t// in\n    tag_108:\n        /* \"#utility.yul\":2974:3047   */\n      swap2\n      pop\n        /* \"#utility.yul\":2770:3057   */\n      pop\n        /* \"#utility.yul\":2555:3064   */\n      swap3\n      swap2\n      pop\n      pop\n      jump\t// out\n        /* \"#utility.yul\":3070:3160   */\n    tag_62:\n        /* \"#utility.yul\":3104:3111   */\n      0x00\n        /* \"#utility.yul\":3147:3152   */\n      dup2\n        /* \"#utility.yul\":3140:3153   */\n      iszero\n        /* \"#utility.yul\":3133:3154   */\n      iszero\n        /* \"#utility.yul\":3122:3154   */\n      swap1\n      pop\n        /* \"#utility.yul\":3070:3160   */\n      swap2\n      swap1\n      pop\n      jump\t// out\n        /* \"#utility.yul\":3166:3275   */\n    tag_63:\n        /* \"#utility.yul\":3247:3268   */\n      tag_111\n        /* \"#utility.yul\":3262:3267   */\n      dup2\n        /* \"#utility.yul\":3247:3268   */\n      tag_62\n      jump\t// in\n    tag_111:\n        /* \"#utility.yul\":3242:3245   */\n      dup3\n        /* \"#utility.yul\":3235:3269   */\n      mstore\n        /* \"#utility.yul\":3166:3275   */\n      pop\n      pop\n      jump\t// out\n        /* \"#utility.yul\":3281:3491   */\n    tag_11:\n        /* \"#utility.yul\":3368:3372   */\n      0x00\n        /* \"#utility.yul\":3406:3408   */\n      0x20\n        /* \"#utility.yul\":3395:3404   */\n      dup3\n        /* \"#utility.yul\":3391:3409   */\n      add\n        /* \"#utility.yul\":3383:3409   */\n      swap1\n      pop\n        /* \"#utility.yul\":3419:3484   */\n      tag_113\n        /* \"#utility.yul\":3481:3482   */\n      0x00\n        /* \"#utility.yul\":3470:3479   */\n      dup4\n        /* \"#utility.yul\":3466:3483   */\n      add\n        /* \"#utility.yul\":3457:3463   */\n      dup5\n        /* \"#utility.yul\":3419:3484   */\n      tag_63\n      jump\t// in\n    tag_113:\n        /* \"#utility.yul\":3281:3491   */\n      swap3\n      swap2\n      pop\n      pop\n      jump\t// out\n        /* \"#utility.yul\":3497:4331   */\n    tag_14:\n        /* \"#utility.yul\":3585:3591   */\n      0x00\n        /* \"#utility.yul\":3593:3599   */\n      0x00\n        /* \"#utility.yul\":3642:3644   */\n      0x40\n        /* \"#utility.yul\":3630:3639   */\n      dup4\n        /* \"#utility.yul\":3621:3628   */\n      dup6\n        /* \"#utility.yul\":3617:3640   */\n      sub\n        /* \"#utility.yul\":3613:3645   */\n      slt\n        /* \"#utility.yul\":3610:3729   */\n      iszero\n      tag_115\n      jumpi\n        /* \"#utility.yul\":3648:3727   */\n      tag_116\n      tag_50\n      jump\t// in\n    tag_116:\n        /* \"#utility.yul\":3610:3729   */\n    tag_115:\n        /* \"#utility.yul\":3796:3797   */\n      0x00\n        /* \"#utility.yul\":3785:3794   */\n      dup4\n        /* \"#utility.yul\":3781:3798   */\n      add\n        /* \"#utility.yul\":3768:3799   */\n      calldataload\n        /* \"#utility.yul\":3826:3844   */\n      0xffffffffffffffff\n        /* \"#utility.yul\":3818:3824   */\n      dup2\n        /* \"#utility.yul\":3815:3845   */\n      gt\n        /* \"#utility.yul\":3812:3929   */\n      iszero\n      tag_117\n      jumpi\n        /* \"#utility.yul\":3848:3927   */\n      tag_118\n      tag_51\n      jump\t// in\n    tag_118:\n        /* \"#utility.yul\":3812:3929   */\n    tag_117:\n        /* \"#utility.yul\":3953:4016   */\n      tag_119\n        /* \"#utility.yul\":4008:4015   */\n      dup6\n        /* \"#utility.yul\":3999:4005   */\n      dup3\n        /* \"#utility.yul\":3988:3997   */\n      dup7\n        /* \"#utility.yul\":3984:4006   */\n      add\n        /* \"#utility.yul\":3953:4016   */\n      tag_61\n      jump\t// in\n    tag_119:\n        /* \"#utility.yul\":3943:4016   */\n      swap3\n      pop\n        /* \"#utility.yul\":3739:4026   */\n      pop\n        /* \"#utility.yul\":4093:4095   */\n      0x20\n        /* \"#utility.yul\":4082:4091   */\n      dup4\n        /* \"#utility.yul\":4078:4096   */\n      add\n        /* \"#utility.yul\":4065:4097   */\n      calldataload\n        /* \"#utility.yul\":4124:4142   */\n      0xffffffffffffffff\n        /* \"#utility.yul\":4116:4122   */\n      dup2\n        /* \"#utility.yul\":4113:4143   */\n      gt\n        /* \"#utility.yul\":4110:4227   */\n      iszero\n      tag_120\n      jumpi\n        /* \"#utility.yul\":4146:4225   */\n      tag_121\n      tag_51\n      jump\t// in\n    tag_121:\n        /* \"#utility.yul\":4110:4227   */\n    tag_120:\n        /* \"#utility.yul\":4251:4314   */\n      tag_122\n        /* \"#utility.yul\":4306:4313   */\n      dup6\n        /* \"#utility.yul\":4297:4303   */\n      dup3\n        /* \"#utility.yul\":4286:4295   */\n      dup7\n        /* \"#utility.yul\":4282:4304   */\n      add\n        /* \"#utility.yul\":4251:4314   */\n      tag_61\n      jump\t// in\n    tag_122:\n        /* \"#utility.yul\":4241:4314   */\n      swap2\n      pop\n        /* \"#utility.yul\":4036:4324   */\n      pop\n        /* \"#utility.yul\":3497:4331   */\n      swap3\n      pop\n      swap3\n      swap1\n      pop\n      jump\t// out\n        /* \"#utility.yul\":4337:4436   */\n    tag_64:\n        /* \"#utility.yul\":4389:4395   */\n      0x00\n        /* \"#utility.yul\":4423:4428   */\n      dup2\n        /* \"#utility.yul\":4417:4429   */\n      mload\n        /* \"#utility.yul\":4407:4429   */\n      swap1\n      pop\n        /* \"#utility.yul\":4337:4436   */\n      swap2\n      swap1\n      pop\n      jump\t// out\n        /* \"#utility.yul\":4442:4590   */\n    tag_65:\n        /* \"#utility.yul\":4544:4555   */\n      0x00\n        /* \"#utility.yul\":4581:4584   */\n      dup2\n        /* \"#utility.yul\":4566:4584   */\n      swap1\n      pop\n        /* \"#utility.yul\":4442:4590   */\n      swap3\n      swap2\n      pop\n      pop\n      jump\t// out\n        /* \"#utility.yul\":4596:4735   */\n    tag_66:\n        /* \"#utility.yul\":4685:4691   */\n      dup3\n        /* \"#utility.yul\":4680:4683   */\n      dup2\n        /* \"#utility.yul\":4675:4678   */\n      dup4\n        /* \"#utility.yul\":4669:4692   */\n      mcopy\n        /* \"#utility.yul\":4726:4727   */\n      0x00\n        /* \"#utility.yul\":4717:4723   */\n      dup4\n        /* \"#utility.yul\":4712:4715   */\n      dup4\n        /* \"#utility.yul\":4708:4724   */\n      add\n        /* \"#utility.yul\":4701:4728   */\n      mstore\n        /* \"#utility.yul\":4596:4735   */\n      pop\n      pop\n      pop\n      jump\t// out\n        /* \"#utility.yul\":4741:5131   */\n    tag_67:\n        /* \"#utility.yul\":4847:4850   */\n      0x00\n        /* \"#utility.yul\":4875:4914   */\n      tag_127\n        /* \"#utility.yul\":4908:4913   */\n      dup3\n        /* \"#utility.yul\":4875:4914   */\n      tag_64\n      jump\t// in\n    tag_127:\n        /* \"#utility.yul\":4930:5019   */\n      tag_128\n        /* \"#utility.yul\":5012:5018   */\n      dup2\n        /* \"#utility.yul\":5007:5010   */\n      dup6\n        /* \"#utility.yul\":4930:5019   */\n      tag_65\n      jump\t// in\n    tag_128:\n        /* \"#utility.yul\":4923:5019   */\n      swap4\n      pop\n        /* \"#utility.yul\":5028:5093   */\n      tag_129\n        /* \"#utility.yul\":5086:5092   */\n      dup2\n        /* \"#utility.yul\":5081:5084   */\n      dup6\n        /* \"#utility.yul\":5074:5078   */\n      0x20\n        /* \"#utility.yul\":5067:5072   */\n      dup7\n        /* \"#utility.yul\":5063:5079   */\n      add\n        /* \"#utility.yul\":5028:5093   */\n      tag_66\n      jump\t// in\n    tag_129:\n        /* \"#utility.yul\":5118:5124   */\n      dup1\n        /* \"#utility.yul\":5113:5116   */\n      dup5\n        /* \"#utility.yul\":5109:5125   */\n      add\n        /* \"#utility.yul\":5102:5125   */\n      swap2\n      pop\n        /* \"#utility.yul\":4851:5131   */\n      pop\n        /* \"#utility.yul\":4741:5131   */\n      swap3\n      swap2\n      pop\n      pop\n      jump\t// out\n        /* \"#utility.yul\":5137:5412   */\n    tag_22:\n        /* \"#utility.yul\":5269:5272   */\n      0x00\n        /* \"#utility.yul\":5291:5386   */\n      tag_131\n        /* \"#utility.yul\":5382:5385   */\n      dup3\n        /* \"#utility.yul\":5373:5379   */\n      dup5\n        /* \"#utility.yul\":5291:5386   */\n      tag_67\n      jump\t// in\n    tag_131:\n        /* \"#utility.yul\":5284:5386   */\n      swap2\n      pop\n        /* \"#utility.yul\":5403:5406   */\n      dup2\n        /* \"#utility.yul\":5396:5406   */\n      swap1\n      pop\n        /* \"#utility.yul\":5137:5412   */\n      swap3\n      swap2\n      pop\n      pop\n      jump\t// out\n        /* \"#utility.yul\":5418:5598   */\n    tag_32:\n        /* \"#utility.yul\":5466:5543   */\n      0x4e487b7100000000000000000000000000000000000000000000000000000000\n        /* \"#utility.yul\":5463:5464   */\n      0x00\n        /* \"#utility.yul\":5456:5544   */\n      mstore\n        /* \"#utility.yul\":5563:5567   */\n      0x32\n        /* \"#utility.yul\":5560:5561   */\n      0x04\n        /* \"#utility.yul\":5553:5568   */\n      mstore\n        /* \"#utility.yul\":5587:5591   */\n      0x24\n        /* \"#utility.yul\":5584:5585   */\n      0x00\n        /* \"#utility.yul\":5577:5592   */\n      revert\n        /* \"#utility.yul\":5604:5773   */\n    tag_68:\n        /* \"#utility.yul\":5688:5699   */\n      0x00\n        /* \"#utility.yul\":5722:5728   */\n      dup3\n        /* \"#utility.yul\":5717:5720   */\n      dup3\n        /* \"#utility.yul\":5710:5729   */\n      mstore\n        /* \"#utility.yul\":5762:5766   */\n      0x20\n        /* \"#utility.yul\":5757:5760   */\n      dup3\n        /* \"#utility.yul\":5753:5767   */\n      add\n        /* \"#utility.yul\":5738:5767   */\n      swap1\n      pop\n        /* \"#utility.yul\":5604:5773   */\n      swap3\n      swap2\n      pop\n      pop\n      jump\t// out\n        /* \"#utility.yul\":5779:5948   */\n    tag_69:\n        /* \"#utility.yul\":5919:5940   */\n      0x5549442063616e6e6f7420626520656d70747900000000000000000000000000\n        /* \"#utility.yul\":5915:5916   */\n      0x00\n        /* \"#utility.yul\":5907:5913   */\n      dup3\n        /* \"#utility.yul\":5903:5917   */\n      add\n        /* \"#utility.yul\":5896:5941   */\n      mstore\n        /* \"#utility.yul\":5779:5948   */\n      pop\n      jump\t// out\n        /* \"#utility.yul\":5954:6320   */\n    tag_70:\n        /* \"#utility.yul\":6096:6099   */\n      0x00\n        /* \"#utility.yul\":6117:6184   */\n      tag_136\n        /* \"#utility.yul\":6181:6183   */\n      0x13\n        /* \"#utility.yul\":6176:6179   */\n      dup4\n        /* \"#utility.yul\":6117:6184   */\n      tag_68\n      jump\t// in\n    tag_136:\n        /* \"#utility.yul\":6110:6184   */\n      swap2\n      pop\n        /* \"#utility.yul\":6193:6286   */\n      tag_137\n        /* \"#utility.yul\":6282:6285   */\n      dup3\n        /* \"#utility.yul\":6193:6286   */\n      tag_69\n      jump\t// in\n    tag_137:\n        /* \"#utility.yul\":6311:6313   */\n      0x20\n        /* \"#utility.yul\":6306:6309   */\n      dup3\n        /* \"#utility.yul\":6302:6314   */\n      add\n        /* \"#utility.yul\":6295:6314   */\n      swap1\n      pop\n        /* \"#utility.yul\":5954:6320   */\n      swap2\n      swap1\n      pop\n      jump\t// out\n        /* \"#utility.yul\":6326:6745   */\n    tag_42:\n        /* \"#utility.yul\":6492:6496   */\n      0x00\n        /* \"#utility.yul\":6530:6532   */\n      0x20\n        /* \"#utility.yul\":6519:6528   */\n      dup3\n        /* \"#utility.yul\":6515:6533   */\n      add\n        /* \"#utility.yul\":6507:6533   */\n      swap1\n      pop\n        /* \"#utility.yul\":6579:6588   */\n      dup2\n        /* \"#utility.yul\":6573:6577   */\n      dup2\n        /* \"#utility.yul\":6569:6589   */\n      sub\n        /* \"#utility.yul\":6565:6566   */\n      0x00\n        /* \"#utility.yul\":6554:6563   */\n      dup4\n        /* \"#utility.yul\":6550:6567   */\n      add\n        /* \"#utility.yul\":6543:6590   */\n      mstore\n        /* \"#utility.yul\":6607:6738   */\n      tag_139\n        /* \"#utility.yul\":6733:6737   */\n      dup2\n        /* \"#utility.yul\":6607:6738   */\n      tag_70\n      jump\t// in\n    tag_139:\n        /* \"#utility.yul\":6599:6738   */\n      swap1\n      pop\n        /* \"#utility.yul\":6326:6745   */\n      swap2\n      swap1\n      pop\n      jump\t// out\n        /* \"#utility.yul\":6751:6923   */\n    tag_71:\n        /* \"#utility.yul\":6891:6915   */\n      0x55494420616c7265616479207265676973746572656400000000000000000000\n        /* \"#utility.yul\":6887:6888   */\n      0x00\n        /* \"#utility.yul\":6879:6885   */\n      dup3\n        /* \"#utility.yul\":6875:6889   */\n      add\n        /* \"#utility.yul\":6868:6916   */\n      mstore\n        /* \"#utility.yul\":6751:6923   */\n      pop\n      jump\t// out\n        /* \"#utility.yul\":6929:7295   */\n    tag_72:\n        /* \"#utility.yul\":7071:7074   */\n      0x00\n        /* \"#utility.yul\":7092:7159   */\n      tag_142\n        /* \"#utility.yul\":7156:7158   */\n      0x16\n        /* \"#utility.yul\":7151:7154   */\n      dup4\n        /* \"#utility.yul\":7092:7159   */\n      tag_68\n      jump\t// in\n    tag_142:\n        /* \"#utility.yul\":7085:7159   */\n      swap2\n      pop\n        /* \"#utility.yul\":7168:7261   */\n      tag_143\n        /* \"#utility.yul\":7257:7260   */\n      dup3\n        /* \"#utility.yul\":7168:7261   */\n      tag_71\n      jump\t// in\n    tag_143:\n        /* \"#utility.yul\":7286:7288   */\n      0x20\n        /* \"#utility.yul\":7281:7284   */\n      dup3\n        /* \"#utility.yul\":7277:7289   */\n      add\n        /* \"#utility.yul\":7270:7289   */\n      swap1\n      pop\n        /* \"#utility.yul\":6929:7295   */\n      swap2\n      swap1\n      pop\n      jump\t// out\n        /* \"#utility.yul\":7301:7720   */\n    tag_46:\n        /* \"#utility.yul\":7467:7471   */\n      0x00\n        /* \"#utility.yul\":7505:7507   */\n      0x20\n        /* \"#utility.yul\":7494:7503   */\n      dup3\n        /* \"#utility.yul\":7490:7508   */\n      add\n        /* \"#utility.yul\":7482:7508   */\n      swap1\n      pop\n        /* \"#utility.yul\":7554:7563   */\n      dup2\n        /* \"#utility.yul\":7548:7552   */\n      dup2\n        /* \"#utility.yul\":7544:7564   */\n      sub\n        /* \"#utility.yul\":7540:7541   */\n      0x00\n        /* \"#utility.yul\":7529:7538   */\n      dup4\n        /* \"#utility.yul\":7525:7542   */\n      add\n        /* \"#utility.yul\":7518:7565   */\n      mstore\n        /* \"#utility.yul\":7582:7713   */\n      tag_145\n        /* \"#utility.yul\":7708:7712   */\n      dup2\n        /* \"#utility.yul\":7582:7713   */\n      tag_72\n      jump\t// in\n    tag_145:\n        /* \"#utility.yul\":7574:7713   */\n      swap1\n      pop\n        /* \"#utility.yul\":7301:7720   */\n      swap2\n      swap1\n      pop\n      jump\t// out\n\n    auxdata: 0xa2646970667358221220000e4863215719fc33ca4aed087892a0c97729e6075a581b3519698701b172ae64736f6c634300081c0033\n}\n",
				"bytecode": {
					"linkReferences": {},
					"object": "6080604052348015600e575f5ffd5b506107b28061001c5f395ff3fe608060405234801561000f575f5ffd5b506004361061003f575f3560e01c806346f90c1d1461004357806378939fad14610073578063aa5bfd21146100a3575b5f5ffd5b61005d60048036038101906100589190610517565b6100bf565b60405161006a9190610578565b60405180910390f35b61008d60048036038101906100889190610591565b6100f1565b60405161009a9190610578565b60405180910390f35b6100bd60048036038101906100b89190610517565b61029e565b005b5f5f826040516100cf9190610659565b90815260200160405180910390205f9054906101000a900460ff169050919050565b5f6100fb826100bf565b610107575f9050610298565b5f839050604081511461011d575f915050610298565b5f5f90505b8151811015610291575f82828151811061013f5761013e61066f565b5b602001015160f81c60f81b90505f603060f81b827effffffffffffffffffffffffffffffffffffffffffffffffffffffffffffff1916101580156101a95750603960f81b827effffffffffffffffffffffffffffffffffffffffffffffffffffffffffffff191611155b8061020c5750606160f81b827effffffffffffffffffffffffffffffffffffffffffffffffffffffffffffff19161015801561020b5750606660f81b827effffffffffffffffffffffffffffffffffffffffffffffffffffffffffffff191611155b5b8061026f5750604160f81b827effffffffffffffffffffffffffffffffffffffffffffffffffffffffffffff19161015801561026e5750604660f81b827effffffffffffffffffffffffffffffffffffffffffffffffffffffffffffff191611155b5b905080610282575f945050505050610298565b50508080600101915050610122565b5060019150505b92915050565b5f8190505f8151116102e5576040517f08c379a00000000000000000000000000000000000000000000000000000000081526004016102dc906106f6565b60405180910390fd5b5f826040516102f49190610659565b90815260200160405180910390205f9054906101000a900460ff161561034f576040517f08c379a00000000000000000000000000000000000000000000000000000000081526004016103469061075e565b60405180910390fd5b60015f836040516103609190610659565b90815260200160405180910390205f6101000a81548160ff021916908315150217905550816040516103929190610659565b60405180910390207f20121cdf51b92a6a59fef95e2d1e418e22c664e84afc7c59b4be66cf35b88daf60405160405180910390a25050565b5f604051905090565b5f5ffd5b5f5ffd5b5f5ffd5b5f5ffd5b5f601f19601f8301169050919050565b7f4e487b71000000000000000000000000000000000000000000000000000000005f52604160045260245ffd5b610429826103e3565b810181811067ffffffffffffffff82111715610448576104476103f3565b5b80604052505050565b5f61045a6103ca565b90506104668282610420565b919050565b5f67ffffffffffffffff821115610485576104846103f3565b5b61048e826103e3565b9050602081019050919050565b828183375f83830152505050565b5f6104bb6104b68461046b565b610451565b9050828152602081018484840111156104d7576104d66103df565b5b6104e284828561049b565b509392505050565b5f82601f8301126104fe576104fd6103db565b5b813561050e8482602086016104a9565b91505092915050565b5f6020828403121561052c5761052b6103d3565b5b5f82013567ffffffffffffffff811115610549576105486103d7565b5b610555848285016104ea565b91505092915050565b5f8115159050919050565b6105728161055e565b82525050565b5f60208201905061058b5f830184610569565b92915050565b5f5f604083850312156105a7576105a66103d3565b5b5f83013567ffffffffffffffff8111156105c4576105c36103d7565b5b6105d0858286016104ea565b925050602083013567ffffffffffffffff8111156105f1576105f06103d7565b5b6105fd858286016104ea565b9150509250929050565b5f81519050919050565b5f81905092915050565b8281835e5f83830152505050565b5f61063382610607565b61063d8185610611565b935061064d81856020860161061b565b80840191505092915050565b5f6106648284610629565b915081905092915050565b7f4e487b71000000000000000000000000000000000000000000000000000000005f52603260045260245ffd5b5f82825260208201905092915050565b7f5549442063616e6e6f7420626520656d707479000000000000000000000000005f82015250565b5f6106e060138361069c565b91506106eb826106ac565b602082019050919050565b5f6020820190508181035f83015261070d816106d4565b9050919050565b7f55494420616c72656164792072656769737465726564000000000000000000005f82015250565b5f61074860168361069c565b915061075382610714565b602082019050919050565b5f6020820190508181035f8301526107758161073c565b905091905056fea2646970667358221220000e4863215719fc33ca4aed087892a0c97729e6075a581b3519698701b172ae64736f6c634300081c0033",
					"opcodes": "PUSH1 0x80 PUSH1 0x40 MSTORE CALLVALUE DUP1 ISZERO PUSH1 0xE JUMPI PUSH0 PUSH0 REVERT JUMPDEST POP PUSH2 0x7B2 DUP1 PUSH2 0x1C PUSH0 CODECOPY PUSH0 RETURN INVALID PUSH1 0x80 PUSH1 0x40 MSTORE CALLVALUE DUP1 ISZERO PUSH2 0xF JUMPI PUSH0 PUSH0 REVERT JUMPDEST POP PUSH1 0x4 CALLDATASIZE LT PUSH2 0x3F JUMPI PUSH0 CALLDATALOAD PUSH1 0xE0 SHR DUP1 PUSH4 0x46F90C1D EQ PUSH2 0x43 JUMPI DUP1 PUSH4 0x78939FAD EQ PUSH2 0x73 JUMPI DUP1 PUSH4 0xAA5BFD21 EQ PUSH2 0xA3 JUMPI JUMPDEST PUSH0 PUSH0 REVERT JUMPDEST PUSH2 0x5D PUSH1 0x4 DUP1 CALLDATASIZE SUB DUP2 ADD SWAP1 PUSH2 0x58 SWAP2 SWAP1 PUSH2 0x517 JUMP JUMPDEST PUSH2 0xBF JUMP JUMPDEST PUSH1 0x40 MLOAD PUSH2 0x6A SWAP2 SWAP1 PUSH2 0x578 JUMP JUMPDEST PUSH1 0x40 MLOAD DUP1 SWAP2 SUB SWAP1 RETURN JUMPDEST PUSH2 0x8D PUSH1 0x4 DUP1 CALLDATASIZE SUB DUP2 ADD SWAP1 PUSH2 0x88 SWAP2 SWAP1 PUSH2 0x591 JUMP JUMPDEST PUSH2 0xF1 JUMP JUMPDEST PUSH1 0x40 MLOAD PUSH2 0x9A SWAP2 SWAP1 PUSH2 0x578 JUMP JUMPDEST PUSH1 0x40 MLOAD DUP1 SWAP2 SUB SWAP1 RETURN JUMPDEST PUSH2 0xBD PUSH1 0x4 DUP1 CALLDATASIZE SUB DUP2 ADD SWAP1 PUSH2 0xB8 SWAP2 SWAP1 PUSH2 0x517 JUMP JUMPDEST PUSH2 0x29E JUMP JUMPDEST STOP JUMPDEST PUSH0 PUSH0 DUP3 PUSH1 0x40 MLOAD PUSH2 0xCF SWAP2 SWAP1 PUSH2 0x659 JUMP JUMPDEST SWAP1 DUP2 MSTORE PUSH1 0x20 ADD PUSH1 0x40 MLOAD DUP1 SWAP2 SUB SWAP1 KECCAK256 PUSH0 SWAP1 SLOAD SWAP1 PUSH2 0x100 EXP SWAP1 DIV PUSH1 0xFF AND SWAP1 POP SWAP2 SWAP1 POP JUMP JUMPDEST PUSH0 PUSH2 0xFB DUP3 PUSH2 0xBF JUMP JUMPDEST PUSH2 0x107 JUMPI PUSH0 SWAP1 POP PUSH2 0x298 JUMP JUMPDEST PUSH0 DUP4 SWAP1 POP PUSH1 0x40 DUP2 MLOAD EQ PUSH2 0x11D JUMPI PUSH0 SWAP2 POP POP PUSH2 0x298 JUMP JUMPDEST PUSH0 PUSH0 SWAP1 POP JUMPDEST DUP2 MLOAD DUP2 LT ISZERO PUSH2 0x291 JUMPI PUSH0 DUP3 DUP3 DUP2 MLOAD DUP2 LT PUSH2 0x13F JUMPI PUSH2 0x13E PUSH2 0x66F JUMP JUMPDEST JUMPDEST PUSH1 0x20 ADD ADD MLOAD PUSH1 0xF8 SHR PUSH1 0xF8 SHL SWAP1 POP PUSH0 PUSH1 0x30 PUSH1 0xF8 SHL DUP3 PUSH31 0xFFFFFFFFFFFFFFFFFFFFFFFFFFFFFFFFFFFFFFFFFFFFFFFFFFFFFFFFFFFFFF NOT AND LT ISZERO DUP1 ISZERO PUSH2 0x1A9 JUMPI POP PUSH1 0x39 PUSH1 0xF8 SHL DUP3 PUSH31 0xFFFFFFFFFFFFFFFFFFFFFFFFFFFFFFFFFFFFFFFFFFFFFFFFFFFFFFFFFFFFFF NOT AND GT ISZERO JUMPDEST DUP1 PUSH2 0x20C JUMPI POP PUSH1 0x61 PUSH1 0xF8 SHL DUP3 PUSH31 0xFFFFFFFFFFFFFFFFFFFFFFFFFFFFFFFFFFFFFFFFFFFFFFFFFFFFFFFFFFFFFF NOT AND LT ISZERO DUP1 ISZERO PUSH2 0x20B JUMPI POP PUSH1 0x66 PUSH1 0xF8 SHL DUP3 PUSH31 0xFFFFFFFFFFFFFFFFFFFFFFFFFFFFFFFFFFFFFFFFFFFFFFFFFFFFFFFFFFFFFF NOT AND GT ISZERO JUMPDEST JUMPDEST DUP1 PUSH2 0x26F JUMPI POP PUSH1 0x41 PUSH1 0xF8 SHL DUP3 PUSH31 0xFFFFFFFFFFFFFFFFFFFFFFFFFFFFFFFFFFFFFFFFFFFFFFFFFFFFFFFFFFFFFF NOT AND LT ISZERO DUP1 ISZERO PUSH2 0x26E JUMPI POP PUSH1 0x46 PUSH1 0xF8 SHL DUP3 PUSH31 0xFFFFFFFFFFFFFFFFFFFFFFFFFFFFFFFFFFFFFFFFFFFFFFFFFFFFFFFFFFFFFF NOT AND GT ISZERO JUMPDEST JUMPDEST SWAP1 POP DUP1 PUSH2 0x282 JUMPI PUSH0 SWAP5 POP POP POP POP POP PUSH2 0x298 JUMP JUMPDEST POP POP DUP1 DUP1 PUSH1 0x1 ADD SWAP2 POP POP PUSH2 0x122 JUMP JUMPDEST POP PUSH1 0x1 SWAP2 POP POP JUMPDEST SWAP3 SWAP2 POP POP JUMP JUMPDEST PUSH0 DUP2 SWAP1 POP PUSH0 DUP2 MLOAD GT PUSH2 0x2E5 JUMPI PUSH1 0x40 MLOAD PUSH32 0x8C379A000000000000000000000000000000000000000000000000000000000 DUP2 MSTORE PUSH1 0x4 ADD PUSH2 0x2DC SWAP1 PUSH2 0x6F6 JUMP JUMPDEST PUSH1 0x40 MLOAD DUP1 SWAP2 SUB SWAP1 REVERT JUMPDEST PUSH0 DUP3 PUSH1 0x40 MLOAD PUSH2 0x2F4 SWAP2 SWAP1 PUSH2 0x659 JUMP JUMPDEST SWAP1 DUP2 MSTORE PUSH1 0x20 ADD PUSH1 0x40 MLOAD DUP1 SWAP2 SUB SWAP1 KECCAK256 PUSH0 SWAP1 SLOAD SWAP1 PUSH2 0x100 EXP SWAP1 DIV PUSH1 0xFF AND ISZERO PUSH2 0x34F JUMPI PUSH1 0x40 MLOAD PUSH32 0x8C379A000000000000000000000000000000000000000000000000000000000 DUP2 MSTORE PUSH1 0x4 ADD PUSH2 0x346 SWAP1 PUSH2 0x75E JUMP JUMPDEST PUSH1 0x40 MLOAD DUP1 SWAP2 SUB SWAP1 REVERT JUMPDEST PUSH1 0x1 PUSH0 DUP4 PUSH1 0x40 MLOAD PUSH2 0x360 SWAP2 SWAP1 PUSH2 0x659 JUMP JUMPDEST SWAP1 DUP2 MSTORE PUSH1 0x20 ADD PUSH1 0x40 MLOAD DUP1 SWAP2 SUB SWAP1 KECCAK256 PUSH0 PUSH2 0x100 EXP DUP2 SLOAD DUP2 PUSH1 0xFF MUL NOT AND SWAP1 DUP4 ISZERO ISZERO MUL OR SWAP1 SSTORE POP DUP2 PUSH1 0x40 MLOAD PUSH2 0x392 SWAP2 SWAP1 PUSH2 0x659 JUMP JUMPDEST PUSH1 0x40 MLOAD DUP1 SWAP2 SUB SWAP1 KECCAK256 PUSH32 0x20121CDF51B92A6A59FEF95E2D1E418E22C664E84AFC7C59B4BE66CF35B88DAF PUSH1 0x40 MLOAD PUSH1 0x40 MLOAD DUP1 SWAP2 SUB SWAP1 LOG2 POP POP JUMP JUMPDEST PUSH0 PUSH1 0x40 MLOAD SWAP1 POP SWAP1 JUMP JUMPDEST PUSH0 PUSH0 REVERT JUMPDEST PUSH0 PUSH0 REVERT JUMPDEST PUSH0 PUSH0 REVERT JUMPDEST PUSH0 PUSH0 REVERT JUMPDEST PUSH0 PUSH1 0x1F NOT PUSH1 0x1F DUP4 ADD AND SWAP1 POP SWAP2 SWAP1 POP JUMP JUMPDEST PUSH32 0x4E487B7100000000000000000000000000000000000000000000000000000000 PUSH0 MSTORE PUSH1 0x41 PUSH1 0x4 MSTORE PUSH1 0x24 PUSH0 REVERT JUMPDEST PUSH2 0x429 DUP3 PUSH2 0x3E3 JUMP JUMPDEST DUP2 ADD DUP2 DUP2 LT PUSH8 0xFFFFFFFFFFFFFFFF DUP3 GT OR ISZERO PUSH2 0x448 JUMPI PUSH2 0x447 PUSH2 0x3F3 JUMP JUMPDEST JUMPDEST DUP1 PUSH1 0x40 MSTORE POP POP POP JUMP JUMPDEST PUSH0 PUSH2 0x45A PUSH2 0x3CA JUMP JUMPDEST SWAP1 POP PUSH2 0x466 DUP3 DUP3 PUSH2 0x420 JUMP JUMPDEST SWAP2 SWAP1 POP JUMP JUMPDEST PUSH0 PUSH8 0xFFFFFFFFFFFFFFFF DUP3 GT ISZERO PUSH2 0x485 JUMPI PUSH2 0x484 PUSH2 0x3F3 JUMP JUMPDEST JUMPDEST PUSH2 0x48E DUP3 PUSH2 0x3E3 JUMP JUMPDEST SWAP1 POP PUSH1 0x20 DUP2 ADD SWAP1 POP SWAP2 SWAP1 POP JUMP JUMPDEST DUP3 DUP2 DUP4 CALLDATACOPY PUSH0 DUP4 DUP4 ADD MSTORE POP POP POP JUMP JUMPDEST PUSH0 PUSH2 0x4BB PUSH2 0x4B6 DUP5 PUSH2 0x46B JUMP JUMPDEST PUSH2 0x451 JUMP JUMPDEST SWAP1 POP DUP3 DUP2 MSTORE PUSH1 0x20 DUP2 ADD DUP5 DUP5 DUP5 ADD GT ISZERO PUSH2 0x4D7 JUMPI PUSH2 0x4D6 PUSH2 0x3DF JUMP JUMPDEST JUMPDEST PUSH2 0x4E2 DUP5 DUP3 DUP6 PUSH2 0x49B JUMP JUMPDEST POP SWAP4 SWAP3 POP POP POP JUMP JUMPDEST PUSH0 DUP3 PUSH1 0x1F DUP4 ADD SLT PUSH2 0x4FE JUMPI PUSH2 0x4FD PUSH2 0x3DB JUMP JUMPDEST JUMPDEST DUP2 CALLDATALOAD PUSH2 0x50E DUP5 DUP3 PUSH1 0x20 DUP7 ADD PUSH2 0x4A9 JUMP JUMPDEST SWAP2 POP POP SWAP3 SWAP2 POP POP JUMP JUMPDEST PUSH0 PUSH1 0x20 DUP3 DUP5 SUB SLT ISZERO PUSH2 0x52C JUMPI PUSH2 0x52B PUSH2 0x3D3 JUMP JUMPDEST JUMPDEST PUSH0 DUP3 ADD CALLDATALOAD PUSH8 0xFFFFFFFFFFFFFFFF DUP2 GT ISZERO PUSH2 0x549 JUMPI PUSH2 0x548 PUSH2 0x3D7 JUMP JUMPDEST JUMPDEST PUSH2 0x555 DUP5 DUP3 DUP6 ADD PUSH2 0x4EA JUMP JUMPDEST SWAP2 POP POP SWAP3 SWAP2 POP POP JUMP JUMPDEST PUSH0 DUP2 ISZERO ISZERO SWAP1 POP SWAP2 SWAP1 POP JUMP JUMPDEST PUSH2 0x572 DUP2 PUSH2 0x55E JUMP JUMPDEST DUP3 MSTORE POP POP JUMP JUMPDEST PUSH0 PUSH1 0x20 DUP3 ADD SWAP1 POP PUSH2 0x58B PUSH0 DUP4 ADD DUP5 PUSH2 0x569 JUMP JUMPDEST SWAP3 SWAP2 POP POP JUMP JUMPDEST PUSH0 PUSH0 PUSH1 0x40 DUP4 DUP6 SUB SLT ISZERO PUSH2 0x5A7 JUMPI PUSH2 0x5A6 PUSH2 0x3D3 JUMP JUMPDEST JUMPDEST PUSH0 DUP4 ADD CALLDATALOAD PUSH8 0xFFFFFFFFFFFFFFFF DUP2 GT ISZERO PUSH2 0x5C4 JUMPI PUSH2 0x5C3 PUSH2 0x3D7 JUMP JUMPDEST JUMPDEST PUSH2 0x5D0 DUP6 DUP3 DUP7 ADD PUSH2 0x4EA JUMP JUMPDEST SWAP3 POP POP PUSH1 0x20 DUP4 ADD CALLDATALOAD PUSH8 0xFFFFFFFFFFFFFFFF DUP2 GT ISZERO PUSH2 0x5F1 JUMPI PUSH2 0x5F0 PUSH2 0x3D7 JUMP JUMPDEST JUMPDEST PUSH2 0x5FD DUP6 DUP3 DUP7 ADD PUSH2 0x4EA JUMP JUMPDEST SWAP2 POP POP SWAP3 POP SWAP3 SWAP1 POP JUMP JUMPDEST PUSH0 DUP2 MLOAD SWAP1 POP SWAP2 SWAP1 POP JUMP JUMPDEST PUSH0 DUP2 SWAP1 POP SWAP3 SWAP2 POP POP JUMP JUMPDEST DUP3 DUP2 DUP4 MCOPY PUSH0 DUP4 DUP4 ADD MSTORE POP POP POP JUMP JUMPDEST PUSH0 PUSH2 0x633 DUP3 PUSH2 0x607 JUMP JUMPDEST PUSH2 0x63D DUP2 DUP6 PUSH2 0x611 JUMP JUMPDEST SWAP4 POP PUSH2 0x64D DUP2 DUP6 PUSH1 0x20 DUP7 ADD PUSH2 0x61B JUMP JUMPDEST DUP1 DUP5 ADD SWAP2 POP POP SWAP3 SWAP2 POP POP JUMP JUMPDEST PUSH0 PUSH2 0x664 DUP3 DUP5 PUSH2 0x629 JUMP JUMPDEST SWAP2 POP DUP2 SWAP1 POP SWAP3 SWAP2 POP POP JUMP JUMPDEST PUSH32 0x4E487B7100000000000000000000000000000000000000000000000000000000 PUSH0 MSTORE PUSH1 0x32 PUSH1 0x4 MSTORE PUSH1 0x24 PUSH0 REVERT JUMPDEST PUSH0 DUP3 DUP3 MSTORE PUSH1 0x20 DUP3 ADD SWAP1 POP SWAP3 SWAP2 POP POP JUMP JUMPDEST PUSH32 0x5549442063616E6E6F7420626520656D70747900000000000000000000000000 PUSH0 DUP3 ADD MSTORE POP JUMP JUMPDEST PUSH0 PUSH2 0x6E0 PUSH1 0x13 DUP4 PUSH2 0x69C JUMP JUMPDEST SWAP2 POP PUSH2 0x6EB DUP3 PUSH2 0x6AC JUMP JUMPDEST PUSH1 0x20 DUP3 ADD SWAP1 POP SWAP2 SWAP1 POP JUMP JUMPDEST PUSH0 PUSH1 0x20 DUP3 ADD SWAP1 POP DUP2 DUP2 SUB PUSH0 DUP4 ADD MSTORE PUSH2 0x70D DUP2 PUSH2 0x6D4 JUMP JUMPDEST SWAP1 POP SWAP2 SWAP1 POP JUMP JUMPDEST PUSH32 0x55494420616C7265616479207265676973746572656400000000000000000000 PUSH0 DUP3 ADD MSTORE POP JUMP JUMPDEST PUSH0 PUSH2 0x748 PUSH1 0x16 DUP4 PUSH2 0x69C JUMP JUMPDEST SWAP2 POP PUSH2 0x753 DUP3 PUSH2 0x714 JUMP JUMPDEST PUSH1 0x20 DUP3 ADD SWAP1 POP SWAP2 SWAP1 POP JUMP JUMPDEST PUSH0 PUSH1 0x20 DUP3 ADD SWAP1 POP DUP2 DUP2 SUB PUSH0 DUP4 ADD MSTORE PUSH2 0x775 DUP2 PUSH2 0x73C JUMP JUMPDEST SWAP1 POP SWAP2 SWAP1 POP JUMP INVALID LOG2 PUSH5 0x6970667358 0x22 SLT KECCAK256 STOP 0xE BASEFEE PUSH4 0x215719FC CALLER 0xCA BLOBBASEFEE 0xED ADDMOD PUSH25 0x92A0C97729E6075A581B3519698701B172AE64736F6C634300 ADDMOD SHR STOP CALLER "
				},
				"gasEstimates": {
					"creation": {
						"codeDepositCost": "394000",
						"executionCost": "428",
						"totalCost": "394428"
					},
					"external": {
						"checkUID(string)": "infinite",
						"registerUID(string)": "infinite",
						"verifyProof(string,string)": "infinite"
					}
				},
				"methodIdentifiers": {
					"checkUID(string)": "46f90c1d",
					"registerUID(string)": "aa5bfd21",
					"verifyProof(string,string)": "78939fad"
				}
			},
			"storageLayout": {
				"storage": [
					{
						"astId": 6,
						"contract": "Zkpass.sol:ZKPass",
						"label": "registeredUIDs",
						"offset": 0,
						"slot": "0",
						"type": "t_mapping(t_string_memory_ptr,t_bool)"
					}
				],
				"types": {
					"t_bool": {
						"encoding": "inplace",
						"label": "bool",
						"numberOfBytes": "1"
					},
					"t_mapping(t_string_memory_ptr,t_bool)": {
						"encoding": "mapping",
						"key": "t_string_memory_ptr",
						"label": "mapping(string => bool)",
						"numberOfBytes": "32",
						"value": "t_bool"
					},
					"t_string_memory_ptr": {
						"encoding": "bytes",
						"label": "string",
						"numberOfBytes": "32"
					}
				}
			},
			"userdoc": {
				"kind": "user",
				"methods": {},
				"version": 1
			}
		}
	}
}